{
  "contractName": "Adoption",
  "abi": [
    {
      "constant": true,
      "inputs": [
        {
          "name": "",
          "type": "uint256"
        }
      ],
      "name": "insurers",
      "outputs": [
        {
          "name": "",
          "type": "address"
        }
      ],
      "payable": false,
      "stateMutability": "view",
      "type": "function"
    },
    {
      "constant": false,
      "inputs": [
        {
          "name": "regId",
          "type": "uint256"
        }
      ],
      "name": "insure",
      "outputs": [
        {
          "name": "",
          "type": "uint256"
        }
      ],
      "payable": false,
      "stateMutability": "nonpayable",
      "type": "function"
    },
    {
      "constant": true,
      "inputs": [],
      "name": "getInsurers",
      "outputs": [
        {
          "name": "",
          "type": "address[16]"
        }
      ],
      "payable": false,
      "stateMutability": "view",
      "type": "function"
    }
  ],
  "bytecode": "0x6060604052341561000f57600080fd5b6102dd8061001e6000396000f300606060405260043610610057576000357c0100000000000000000000000000000000000000000000000000000000900463ffffffff168063115695861461005c57806349b1a0bf146100ad578063e5ee64c3146100e4575b600080fd5b341561006757600080fd5b61006f610147565b6040518082601060200280838360005b8381101561009a57808201518184015260208101905061007f565b5050505090500191505060405180910390f35b34156100b857600080fd5b6100ce60048080359060200190919050506101c8565b6040518082815260200191505060405180910390f35b34156100ef57600080fd5b610105600480803590602001909190505061023d565b604051808273ffffffffffffffffffffffffffffffffffffffff1673ffffffffffffffffffffffffffffffffffffffff16815260200191505060405180910390f35b61014f610272565b60006010806020026040519081016040528092919082601080156101be576020028201915b8160009054906101000a900473ffffffffffffffffffffffffffffffffffffffff1673ffffffffffffffffffffffffffffffffffffffff1681526020019060010190808311610174575b5050505050905090565b60008082101580156101db5750600f8211155b15156101e657600080fd5b336000836010811015156101f657fe5b0160006101000a81548173ffffffffffffffffffffffffffffffffffffffff021916908373ffffffffffffffffffffffffffffffffffffffff160217905550819050919050565b60008160108110151561024c57fe5b016000915054906101000a900473ffffffffffffffffffffffffffffffffffffffff1681565b610200604051908101604052806010905b600073ffffffffffffffffffffffffffffffffffffffff1681526020019060019003908161028357905050905600a165627a7a72305820b3ea02ce3ef6e2eaa7450f1a5e88c42e075878188d4b248c7f4fdf0c05d11adb0029",
  "source": "pragma solidity ^0.4.17;\n\ncontract Adoption {\n    address[16] public insurers;\n\n// Insuring a car \nfunction insure (uint  regId) public returns (uint) {\nrequire(regId >= 0 && regId <= 15);\ninsurers[regId] = msg.sender;\nreturn regId;\n}\n// Retrieving the insurers\nfunction getInsurers() public view returns (address[16]) {\nreturn insurers;\n}\n}\n\n\n",
  "sourcePath": "/home/aidan/Documents/This is working Car images_BackUp_1304118 /pet-shop-tutorial_withCar Images/contracts/Insurance.sol",
  "compiler": {
    "name": "solc",
    "version": "0.4.21+commit.dfe3193c.Emscripten.clang"
  },
  "schemaVersion": "2.0.0",
  "updatedAt": "2018-04-14T22:50:25.573Z"
}